:020000040000FA
:0400000051EF00F0CC
:0400080019EF00F0FC
:08001800D8CF81F0E8CF80F0A1
:10002000E0CF82F082C0E0FF80C0E8FF81C0D8FF4F
:100030001000C7A050EF00F0C9CF08F09E9680B81E
:1000400050EF00F0800E08622AEF00F097EC00F00D
:1000500050EF00F008C003F0F00E0316400E0362EC
:1000600039EF00F00F0E0814E8CF0AF00B6A50EFDA
:1000700000F0100E036250EF00F00BA047EF00F00D
:100080000F0E08140C129CEC00F04CEF00F008C0AE
:100090000CF00C3AF00E0C160B2A400E0B600B6A9B
:1000A00011008AEC00F00D86926A9288966A956A31
:1000B000936AF296F298F098F096000EE8CF94FFCB
:1000C000949CAC8CAC80AC9AAC98AC94010EAF6EA6
:1000D0009D989D9A829CAB8E9488948A928A808AFD
:1000E0009486C79EC698C79CC69EC696C684C6926E
:1000F000C680C68A9D86000ED66ED58ED58CD59AC2
:10010000D586D594D592D590F29AD09EF28EF28C67
:10011000B0EF00F002EE00F0EF6AE93E8CEF00F085
:1001200003EE00F0EF6AE93E92EF00F012000B6A76
:10013000076A8AEC00F0120012EE00F00AB613EE25
:1001400000F00BC004F00442049E04C0E1FF0AB4B6
:10015000E18E0AB2E18C0AB0E18A0CC0E7FF12001E
:10016000F2A41FD0620ED626F2940DB8CAEF00F0AA
:100170000DA6D1EF00F00F2A030E0F60948C0F60D4
:10018000AC9A070E0F64D1EF00F00D88949CAC8AF6
:10019000D1EF00F00F6A0D6A0E6A000EAD6ED1EF5E
:1001A00000F09EA820D00DA2DDEF00F00DB6F3EF19
:1001B00000F00D860F6AF3EF00F022EE00F00DB0B4
:1001C00023EE00F00E50D926DFCFADFF0DB0EDEFDE
:1001D00000F00E4A0D80F3EF00F00E3EF3EF00F05A
:0A01E0000D82F3EF00F0B0EF00F025
:00000001FF
