:020000040000FA
:04000000E5EF00F038
:0400080019EF00F0FC
:08001800D8CF81F0E8CF80F0A1
:10002000E0CF82F082C0E0FF80C0E8FF81C0D8FF4F
:100030001000F2A432D0620ED626F29415B833EF37
:1000400000F015A63AEF00F0172A030E1760948C03
:100050001760AC9A070E17643AEF00F01588949C6D
:10006000AC8A3AEF00F0176A156A166A000EAD6E98
:100070003AEF00F0132AFA0E13624DEF00F0136A04
:10008000142AC80E14644DEF00F0146A36EC01F027
:10009000FF0EE8CF0EF0E8CF0FF09EAA53D010B0BD
:1000A0000E6A10B00F6A106AABB49EEF00F0ABA0FE
:1000B0009EEF00F01196AECF05F0136A146A11B4EA
:1000C000A2EF00F011A298EF00F024EE00F011B0C2
:1000D00025EE00F01250D926DFCF06F005C0DFFF75
:1000E0000550066276EF00F08BEF00F0E00E121480
:1000F000056E0542053A010E066E000E056485EF99
:1001000000F0050606467EEF00F006C0E8FF11B0DD
:100110000F1211A00E1211B092EF00F0124A1180CE
:10012000A2EF00F0123EA2EF00F01184A2EF00F067
:100130001182000E05621184A2EF00F0116A126AAA
:10014000AECF05F09EA820D015A2AEEF00F015B6F8
:10015000C4EF00F01586176AC4EF00F022EE00F03D
:1001600015B023EE00F01650D926DFCFADFF15B045
:10017000BEEF00F0164A1580C4EF00F0163EC4EF43
:1001800000F01582C4EF00F0E4EF00F09EA600D06E
:10019000F2A200D0F2A000D0F0A200D0F0A000D0D7
:1001A0009EAE00D09EAC00D09EA400D09EA200D0F7
:1001B0009EA000D0A1A800D0A1A600D0A1A400D0EC
:1001C000A1A200D0A1A000D0110043EC01F015863F
:1001D000116A1184136A146A926A966AFF0E956E08
:1001E000000E936EF296F298F098F096800EE8CF9B
:1001F00094FF949C948EAC8CAC80AC9AAC98AC94EC
:10020000010EAF6EAB8CAB889D889D8A829CAB8EB5
:100210009498949A9496C79EC698C79CC69EC68A80
:10022000C696C694C692C6909E869D96000ED66EC1
:10023000D58ED58CD59AD586D594D592D590F28A7F
:10024000D09EF28E29EF02F09EA624EF01F09E963A
:100250001200819E08B6818E819C08B4818C819A9F
:1002600008B2818A819808B08188120024EE00F0DB
:10027000DF6AD93E38EF01F025EE00F0DF6AD93EA3
:100280003EEF01F0120002EE00F0EF6AE93E45EFAA
:1002900001F003EE00F0EF6AE93E4BEF01F004EEEF
:1002A00000F0EF6AE93E51EF01F005EE00F0EF6A71
:1002B000E93E57EF01F0120081928184800EC96EF1
:1002C0000B6A0C6A076A106A43EC01F08194818220
:1002D000800EC96E00000000000000000000000059
:1002E000000000009E86120012EE00F00AB613EE27
:1002F00000F00CC004F00442049E04C0E1FF0AB404
:10030000E18E0AB2E18C0AB0E18A0DC0E7FF12006B
:1003100009A08FEF01F08192818491EF01F0819427
:10032000818224EC01F0100E0810C96E120009A0A1
:100330009EEF01F081928184A0EF01F0819481828F
:1003400024EC01F0400E0A10C96E1200D8CF01F063
:10035000E8CF02F0E0CF00F00B0607A0CCEF01F0F1
:1003600029EC01F00F0E0816000E096288EC01F06E
:10037000000E0962CCEF01F0000E0B64CCEF01F02F
:100380000CA0C9EF01F008500D1274EC01F0CCEF95
:1003900001F0083A08C00DF007A2F2EF01F004EEF8
:1003A00000F00AB605EE00F00C40E8CFE9FFE99E48
:1003B0000AB4E98E0AB2E98C0AB0E98AEFCF03F0F9
:1003C0000CB0033A819E03BE818E819C03BC818C5C
:1003D000819A03BA818A819803B88188000000005D
:1003E0000000000007A408EF02F0000E0C6208EF06
:1003F00002F029EC01F00A6A08B60A8608B40A84F9
:1004000008B20A8208B00A80000E096297EC01F077
:1004100007A621EF02F00EC003F00CB20FC003F0EC
:10042000030E0C6010800CB0033A819E03BE818ED7
:10043000819C03BC818C819A03BA818A819803B81C
:1004400081880C2A00C0E0FF02C0E8FF01C0D8FF8D
:10045000120083B829EF02F0000000000000000045
:10046000000000000000000083CF08F008B829EF6A
:1004700002F0600E086253EF02F0819E819C819A27
:100480008198819683A842EF02F0000000000000EE
:10049000000083CF08F008A842EF02F081865CECF0
:1004A00001F029EF02F008BE5BEF02F0A6EC01F0CC
:1004B0008196ACEF02F00C6A096A08BC098208BA9E
:1004C00009800F0E0816076A000E08626CEF02F032
:1004D000000E0B6EA9EF02F0010E086275EF02F03C
:1004E0000780410E0B6EA9EF02F0020E08627EEF4C
:1004F00002F00782410E0B6EA9EF02F0030E0862B4
:1005000088EF02F007820780410E0B6EA9EF02F020
:10051000040E086293EF02F00784010E0B6E29ECC3
:1005200001F0A9EF02F0050E08629CEF02F00786C9
:10053000050E0B6EA9EF02F0080E0862A6EF02F09E
:100540005CEC01F0000E0B6EA9EF02F0076AA9EF58
:1005500002F08196ACEF02F083A8ACEF02F000004D
:10056000000000000000000000000000000083CF39
:1005700008F008A8ACEF02F008BEC4EF02F0A6EC49
:1005800001F0818629EF02F0819E819C819A8198F9
:0A0590005CEC01F0818629EF02F017
:00000001FF
